:020000040800F2
:100000009024002075150008250400082704000826
:100010002B0400082F04000833040008000000002F
:10002000000000000000000000000000370400088D
:1000300039040008000000003B0400083D040008EB
:100040008F1500088F1500088F1500088F15000800
:100050008F1500088F150008314400088F1500081F
:10006000754400088F150008974400088F15000894
:100070008F1500088F1500088F1500088F150008D0
:100080008F1500088F1500088F1500088F150008C0
:100090008F1500088F1500088F150008DD44000833
:1000A0008F1500088F1500088F1500088F150008A0
:1000B0008F1500088F150008B10600088F1500087D
:1000C0008F1500088F1500088F1500088F15000880
:1000D0008F150008E91300088F1500088507000830
:1000E0008F1500088F1500088F15000800F002F822
:1000F00000F0B4F80AA090E8000C82448344AAF10E
:100100000107DA4501D100F0A9F8AFF2090EBAE80B
:100110000F0013F0010F18BFFB1A43F0010318473B
:10012000A48B0000C48B000010F8013B0A4413F0BC
:10013000030408BF10F8014B1D1108BF10F8015B44
:10014000641E05D010F8016B641E01F8016BF9D133
:10015000002D15D010F8014B03F00C030C2BA1EB74
:1001600004040ABF10F8013BA4EB8314A4EB03249E
:1001700005F1010314F8016B5B1E01F8016BF9D561
:10018000914238BF10F8013BD1D3704700230024BF
:1001900000250026103A28BF78C1FBD8520728BF97
:1001A00030C148BF0B6070476E2904F0B6857029D6
:1001B00004F0F383662907F0EA87652907F0E787EB
:1001C000672907F0E487612907F0E38703681B0AC2
:1001D00028BF41F08001692904F06483642904F098
:1001E0006183752904F05E836F2904F0AF86782956
:1001F00004F0BF83E92904F04986E42904F0468627
:10020000F52904F04386EF2904F0AC86F82904F0C0
:10021000BE830368DB0928BF41F08001632904F035
:10022000B885732904F0BD85E32905F0AB82F32975
:1002300005F0B082002070471FB505F005FB0400F3
:100240000020002106F06EFE401C606000200021AE
:1002500006F052FEE0601FBD10B510BD05F0C6FAF5
:100260001146FFF7E9FF00F009F805F09FFB03B422
:10027000FFF7F2FF03BC01F05DF8000000F0F0FFB3
:100280004FF4A06001F096F94FF4E13001F060F80E
:1002900000F0C6F900F0EFFD00F0C4FC0020424978
:1002A00008604249086042490860142410E041A2F5
:1002B0000221002000F058FD4FF47A7001F00DF893
:1002C0004048006808B9012000E000203D4908606E
:1002D00003F06DFA0028EAD13BA2022100F044FDB0
:1002E00040F2CF21092000F0B7F902F04BFF02F0F5
:1002F0004FFF39A000F0C4FA40A20021084600F0E8
:1003000033FD00F08FFC3FA20621002000F02CFD01
:100310003EA20221002000F027FD04F091F904F034
:10032000EEF801203B4908803B4908803BE004EBA4
:10033000840039490988B1EB400F29DB4FF0804137
:100340003648006807F048FC05461848016828460A
:1003500007F0D4FB154908602F48008807F052FDCC
:10036000824607F09FFB074600222D4B06F0DEFE7B
:10037000054606F0EDFD81464B460D4802680B48E8
:1003800001680948006803F0D4FF01202249088071
:100390002048008840F6B731884204DB00F01AFE9E
:1003A00001201C490880C2E7000800200408002042
:1003B000080800204D505520496E69742E2E2E2EAF
:1003C0002E2E0000B40122424D505520496E697412
:1003D0002E2E2E4F4B2100000D0A41544B2D424C26
:1003E000453031C4A3BFE920CAD6BBFACDA8D0C5D9
:1003F000CAB5D1E90D0A0D0A00000000424C4520A3
:100400004F4B2100526F6C6C3D0000004759782023
:100410003D00000012080020100800200C080020F9
:100420000088C340704700BFFEE700BFFEE700BF83
:10043000FEE700BFFEE77047704770477047000057
:100440000CB50020019000906C48006840F48030AA
:100450006A49086000BF6948006800F400300090F5
:100460000198401C0190009818B90198B0F5A06F50
:10047000F1D16248006800F4003010B10120009012
:1004800001E0002000900098012843D15C480068FA
:1004900040F010005A4908600846006820F0030048
:1004A00008600846006840F0020008605348406851
:1004B000524948600846406848600846406840F431
:1004C000806048600846406820F47C104860084618
:1004D000406840F4E81048600846006840F08070CA
:1004E000086000BF4548006800F000700028F9D09F
:1004F0004248406820F00300404948600846406890
:1005000040F00200486000BF3C48406800F00C002A
:100510000828F9D10CBD10B5FFF792FF10BD10B53A
:100520003648006840F001003449086008464068D9
:10053000344908403149486008460068324908405B
:100540002E4908600846006820F4802008600846AC
:10055000406820F4FE0048604FF41F008860FFF7F9
:10056000DAFF4FF000602949086010BD10B5002186
:1005700000200022214B5B6803F00C0121B104290B
:1005800006D0082928D107E0214B224C236027E020
:100590001F4B204C236023E0184B5B6803F4701062
:1005A000164B5B6803F48032022303EB904022B9C0
:1005B000194B4343174C23600DE0104B5B6803F469
:1005C000003323B1144B4343124C236003E0104B20
:1005D0004343104C236003E00D4B0E4C236000BFDF
:1005E00000BF064B5B68C3F303130C4CE15C094B83
:1005F0001B68CB40074C236010BD00000010024078
:10060000002002400000FFF8FFFFF6FE08ED00E0CA
:1006100000127A001408002000093D00180800208C
:1006200008B50121102001F04FFB4FF40050ADF848
:10063000000010208DF8030003208DF802006946A9
:10064000044801F085F84FF40051024801F02DF9FB
:1006500008BD0000001001407FB505460C46012191
:10066000042001F03EFBADF80850ADF80440002036
:10067000ADF80A00ADF8060001A9394801F060FEA6
:1006800001221146364802F0D2F91E208DF80000F2
:1006900002208DF801008DF8020001208DF8030082
:1006A000684600F08CFF01212D4802F0A5F97FBDBE
:1006B00010B501212A4802F068FC00284FD0012122
:1006C000274802F073FC27480088002804DD2548ED
:1006D0000088401C2349088022480088642808D1EB
:1006E0002148008840F400401F49088000201D492F
:1006F00008801E480088002804DD1C480088401C33
:100700001A4908801A480088002804DD1848008823
:10071000401C1749088017480088002804DD154848
:100720000088401C1349088013480088002804DD15
:1007300011480088401C1049088010480088002893
:1007400004DD0E480088401C0C4908800C480088D5
:10075000002804DD0A480088401C0949088010BDB3
:10076000000800402A080020280800201008002067
:1007700012080020700A0020720A00207C0A002063
:100780007E0A002010B540F225514F4801F0C0FC10
:10079000F8B14D4801F03CFCC4B24C48008800F46C
:1007A0000040B0B949480088B0F5806F12DA0021E6
:1007B0004FF0804002F0B4FB4448008810B901209B
:1007C0004349088041490888411C404A11804149F9
:1007D0000C5405E03D48008840F400403B49088047
:1007E00010BD1CB504460121082001F06DFA01215D
:1007F000880401F076FA344801F0CAFA4FF48060B8
:10080000ADF8000003208DF8020018208DF80300D9
:100810006946314800F09CFF4FF40060ADF80000DD
:1008200048208DF8030069462B4800F091FF2B48C3
:100830000460002029498880C880088188810C20B4
:100840004881214801F0E7FA01211F4801F06FFBC0
:10085000012240F225511C4801F075FB27208DF83C
:10086000040002208DF805008DF8060001208DF8A7
:10087000070001A800F0A3FE0020144908801CBD59
:100880000FB438B505A800901548009A049903F0F4
:1008900085FF00200090124804F084F985B20024FE
:1008A0000DE000BF4021084801F01CFC0028F9D0F1
:1008B0000B48015D044801F0A7FB601C84B2AC4208
:1008C000EFDB38BC5DF814FB00480040280800202E
:1008D0002A080020840A0020000C0140DC100020BF
:1008E000840E002008B50121082001F0EDF9C02098
:1008F000ADF8000010208DF8030003208DF80200F1
:1009000069468D4800F024FFC0218B4800F0CDFFE0
:1009100001208A4908608A49C1F89C0108BD10B5C8
:100920008548006820F070408349086008460068E8
:1009300040F04050086001208049091D086080494E
:10094000C1F89801042000F0A4FC00207B49091D97
:100950000860042000F09DFC00207949C1F898014E
:1009600010BD10B57448006820F0704072490860EE
:100970000846006840F04050086000206F49086059
:100980006F49C1F89C01042000F083FC01206B49F1
:1009900008606B49C1F89C01042000F07AFC10BD8E
:1009A00010B500246448006820F070406249086077
:1009B0000846006840F00040086001205F49091DBA
:1009C000086000F066FC01205D49C1F8980100F064
:1009D00060FC07E0601CC4B2FA2C03DDFFF7C1FF26
:1009E000012010BD55487C3800680028F2D15349D9
:1009F000086000BFF5E710B50020504908604E4878
:100A0000006820F070404C4908600846006840F0DB
:100A10004050086000204A49C1F89C01022000F0C3
:100A200038FC012045490860022000F032FC00201B
:100A30004349C1F8980110BD10B500203F49086036
:100A40003D48006820F070403B4908600846006857
:100A500040F04050086001203949C1F89C01022053
:100A600000F017FC012035490860022000F011FC5D
:100A700000203349C1F8980110BD70B504462E48D6
:100A8000006820F070402C4908600846006840F07B
:100A900040500860002029490860002517E0E0095F
:100AA0002649091D08606006040E022000F0F1FBD3
:100AB00001202349C1F89801022000F0EAFB002040
:100AC0001E490860022000F0E4FB681CC5B2082D36
:100AD000E5DB70BD70B5054600241748006820F0BE
:100AE0007040154908600846006840F00040086002
:100AF000002616E0002011490860022000F0C9FB22
:100B000001200F49C1F898016006040E0B487C389B
:100B1000006808B1601CC4B2012000F0BAFB701C70
:100B2000C6B2082EE6DB15B9FFF786FF01E0FFF736
:100B300062FF204670BD0000000C014098812142F8
:100B40000080214270B504460E462EB14FF480411C
:100B5000FE4800F0AAFE04E04FF48041FB4800F09C
:100B6000A6FE0221F94800F0A2FE00251BE04FF48A
:100B70000041F64800F09BFE04F0800028B14FF4DD
:100B80000051F24800F091FE04E04FF40051EF48AC
:100B900000F08DFE4FF40041EC4800F086FE600648
:100BA000040E681CC5B2082DE1DB0221E74800F005
:100BB0007CFE4FF48041E54800F077FE70BD70B5D3
:100BC00004460D4605F1B001C8B20021FFF7BAFF97
:100BD000102141EA14100021FFF7B4FF04F00F01C7
:100BE00041F001000021FFF7ADFF70BD10B50021FD
:100BF0008D20FFF7A7FF00211420FFF7A3FF00219E
:100C0000AF20FFF79FFF10BD10B500218D20FFF72B
:100C100099FF00211020FFF795FF0021AE20FFF77C
:100C200091FF10BD70B5002419E004F1B001C8B205
:100C30000021FFF787FF00210846FFF783FF00210F
:100C40001020FFF77FFF002505E001210020FFF7BE
:100C500079FF681CC5B2802DF7DB601CC4B2082C7C
:100C6000E3DB70BD2DE9F04107460E4690460025B6
:100C70000024A8F12000C5B27F2F02DD0027B01CA0
:100C8000C6B231463846FFF79AFF002408E004EB6D
:100C90000511AF4A505C0121FFF754FF601CC4B23C
:100CA000082CF4DB701CC1B23846FFF788FF002423
:100CB00009E004EB05110831A54A505C0121FFF75A
:100CC00041FF601CC4B2082CF3DBBDE8F08110B515
:100CD0000246012000E050430B00A1F10104E1B203
:100CE000F9D110BD2DE9FF5F074691461D460E9EC6
:100CF0004FF0000A002433E0281B401EC1B20A2036
:100D0000FFF7E5FFB9FBF0F00A21B0FBF1F201FBC0
:100D10001208BAF1000F13D1681EA04210DDB8F11D
:100D2000000F0BD1B34606EBDB71491001FB0471D8
:100D3000C8B220220199FFF795FF0FE04FF0010A9A
:100D4000B34606EBDB71491001FB0471C8B208F130
:100D50003001CAB20199FFF785FF00BF601CC4B221
:100D6000AC42C9DBBDE8FF9F2DE9F04104460F46C8
:100D7000154600260EE0AA5D39462046FFF772FFB1
:100D800004F10800C4B2782C02DD0024B81CC7B2FC
:100D9000701CC6B2A85D0028EDD1BDE8F0812DE938
:100DA000F04180460E461546002731464046FFF783
:100DB00006FF00240AE0674A02EB8511085D012165
:100DC000FFF7C0FE781CC7B2601CC4B2102CF2DB67
:100DD000701CC1B24046FFF7F2FE00240CE069002F
:100DE000491C5C4A02EB4111085D0121FFF7AAFE94
:100DF000781CC7B2601CC4B2102CF0DBBDE8F081D7
:100E00002DE9F05F06460F4690461C46DDF828A007
:100E10004FF0000BE11704EB5171C910A4EBC101B5
:100E200031B92046E11704EB5171C1F3C70506E063
:100E30002046E11704EB5171C910491CCDB23D4663
:100E400015E029463046FFF7BAFEB1460BE0594699
:100E50000BF1010B1AF801000121FFF773FE09F1F4
:100E6000010000F0FF09C145F1DB681CC5B2A542D5
:100E7000E7DBBDE8F09F08B50121082000F024FF62
:100E80004FF20200ADF8000010208DF8030003209F
:100E90008DF8020069462D4800F05AFC4FF202011D
:100EA0002A4800F002FD4FF48051284800F0FDFC74
:100EB000642000F012FA4FF48051244800F0F7FC4F
:100EC000642000F00AFA4FF48051204800F0EDFC55
:100ED0000021AE20FFF736FE00210846FFF732FE64
:100EE00000211020FFF72EFE00214020FFF72AFEF0
:100EF00000218120FFF726FE0021CF20FFF722FEF0
:100F00000021A120FFF71EFE0021C820FFF71AFED6
:100F10000021A620FFF716FE0021A820FFF712FEF1
:100F200000213F20FFF70EFE0021D320FFF70AFE2D
:100F300000210846FFF706FE0021D520FFF702FE3C
:100F400000218020FFF7FEFD002105E0000C01409C
:100F5000AE8400082C080020D920FFF7F3FD002103
:100F6000F120FFF7EFFD0021DA20FFF7EBFD002174
:100F70001220FFF7E7FD0021DB20FFF7E3FD002152
:100F80004020FFF7DFFD00212020FFF7DBFD0021DF
:100F90000220FFF7D7FD00218D20FFF7D3FD0021B0
:100FA0001420FFF7CFFD0021A420FFF7CBFD002187
:100FB000A620FFF7C7FD0021AF20FFF7C3FD0021EA
:100FC000AF20FFF7BFFDFFF72DFE00210846FFF71A
:100FD000F6FD08BDF8B595490868002106F026FF22
:100FE00019D293A206212820FFF7BEFE8F48006881
:100FF00080F000478F49384606F04CFF064606F061
:10100000C9FE85B2102005232A4606210090302013
:10101000FFF768FE15E088A206212820FFF7A4FE4E
:1010200082490868834906F035FF064606F0B2FE9D
:1010300085B2102005232A46062100903020FFF7B4
:1010400051FE7A498868002106F0F0FE15D278A298
:1010500002212820FFF788FE7448806880F000464F
:10106000304606F097FE85B2102005232A4602215D
:1010700000903020FFF736FE11E06FA202212820F9
:10108000FFF772FE6949886806F084FE85B2102079
:1010900005232A46022100903020FFF723FE6749EE
:1010A0004868002106F0C2FE15D261A2042100208A
:1010B000FFF75AFE6148406880F00046304606F06F
:1010C00069FE85B2102003232A46042100900820DF
:1010D000FFF708FE11E058A204210020FFF744FEAC
:1010E0005649486806F056FE85B2102003232A466A
:1010F000042100900820FFF7F5FD50490868002101
:1011000006F094FE15D24AA204213C20FFF72CFEE3
:101110004A48006880F00046304606F03BFE85B243
:10112000102003232A46042100904620FFF7DAFD11
:1011300011E041A204213C20FFF716FE3F49086858
:1011400006F028FE85B2102003232A4604210090D1
:101150004620FFF7C7FD3A48008800F40040002809
:101160005BD037480088C0F30E040020354908558D
:1011700033490880214634A0FFF782FB31480178CB
:1011800031A0FFF77DFB2F4841782FA0FFF778FBB8
:101190002C4881782CA0FFF773FB032C20D1294821
:1011A0000078CE281CD127484078022809D125494B
:1011B000887806F027FE274908600846006808601E
:1011C0000EE02048407801280AD11E49887806F0B0
:1011D00019FE204908600846006880F00040086059
:1011E000032C1AD117480078CF2816D1154840781B
:1011F000012806D11349887806F004FE16490860D4
:101200000BE010484078022807D10E49887806F094
:10121000F9FD80F00040104908601048006808B9E6
:10122000012000E000200D490860F8BD18120020E0
:101230002D0000000000C8422B000000180A00200A
:1012400028080020840A00204C656E2025640D0AC1
:1012500000000000000800200C080020B401224219
:1012600010B56FF0040000F0F4F92E4800682E4924
:10127000B0FBF1F02D4908700846007800EB400102
:10128000C1EBC0104FF6FF7101EAC0002849088089
:1012900010BD0146254A12784A434FF0E0235A61B7
:1012A00000229A611A46126942F001021A6100BFD7
:1012B0004FF0E022106900F001021AB100F4803210
:1012C000002AF5D04FF0E022126922F001024FF01F
:1012D000E0231A6100229A6170470146144A12887D
:1012E0004A434FF0E0235A6100229A611A4612697C
:1012F00042F001021A6100BF4FF0E022106900F0D5
:1013000001021AB100F48032002AF5D04FF0E02239
:10131000126922F001024FF0E0231A6100229A6163
:10132000704700001408002000127A00EC09002029
:10133000EE09002000BF704700BF4A4A128802F041
:101340004002002AF9D0C2B2464B1B1D1A807047DA
:1013500010B586B00446012144F2040000F0B4FC4C
:101360004FF40070ADF8140003208DF8160018201B
:101370008DF8170005A93C4800F0EAF94FF48060A9
:10138000ADF8140004208DF8170005A9364800F0C8
:10139000DFF925208DF8000003208DF801008DF87D
:1013A000020001208DF80300684600F008F901945E
:1013B0000020ADF80800ADF80A00ADF80C00ADF85B
:1013C00010000C20ADF80E0001A9264800F023FD06
:1013D000012240F22551234800F0B5FD01212148AA
:1013E00000F0A5FD06B010BD10B540F225511D4816
:1013F00000F08EFE10B31B4800F00AFEC4B21B487A
:10140000008800F40040C8B91848008800F4804003
:1014100060B10A2C03D000201449088020E0134852
:10142000008840F400401149088019E00D2C06D1D5
:101430000E48008840F480400C49088010E00B48BA
:101440000088C0F30D000A490C5408480088401C6D
:101450000649088008460088C72801DD002008806A
:1014600010BD00000038014000080140F4090020D0
:10147000EC1000201FB50121082000F025FC3520CC
:10148000ADF8000028208DF803006946384800F0C8
:101490005FF90121084600F017FC0421012000F04B
:1014A0006DFA1020029000208DF80C0008208DF8B5
:1014B0000D0001208DF80E0002A801F089FD052124
:1014C000012000F05BFA2020029002A801F080FDCC
:1014D0000021012000F052FA0120029002A801F040
:1014E00077FD0221012000F049FA0420029002A8B1
:1014F00001F06EFD0A208DF8040003208DF8050030
:1015000002208DF8060001208DF8070001A800F0E8
:1015100056F806208DF8040003208DF805000220FF
:101520008DF8060001208DF8070001A800F047F8AB
:1015300008208DF8040003208DF8050002208DF8A6
:10154000060001208DF8070001A800F038F81720E8
:101550008DF8040003208DF8050002208DF80600A8
:1015600001208DF8070001A800F029F81FBD000038
:10157000000C01400948804709480047FEE7FEE7A4
:10158000FEE7FEE7FEE7FEE7FEE7FEE7FEE7FEE733
:1015900004480549054A064B704700001F0500082E
:1015A000ED000008901200209024002090140020EC
:1015B0009014002031490143314A1160704770B5E1
:1015C000002100230F22C47804B32D4C246804F4B6
:1015D000E064C4F5E064210AC1F10403CA40447820
:1015E00004FA03F18478144021430901254C06785C
:1015F000A155047804F01F050124AC4005786D1155
:10160000AD0005F1E025C5F8004109E0047804F0DB
:101610001F050124AC401C4D0678761145F8264084
:1016200070BD1A4A0A400243154B1B1F1A607047CF
:1016300039B1134A121D12680243114B1B1D1A6067
:1016400006E00F4A121D126882430D4B1B1D1A60E3
:101650007047042808D14FF0E021096941F00401E6
:101660004FF0E022116107E04FF0E021096921F01D
:1016700004014FF0E0221161704700000000FA05FC
:101680000CED00E000E400E080E100E080FFFF1FDF
:1016900010B50446CC48844208D10121042000F052
:1016A0002DFB0021042000F029FB46E0C7488442BE
:1016B00008D10121082000F021FB0021082000F0C2
:1016C0001DFB3AE0C248844208D10121102000F0FD
:1016D00015FB0021102000F011FB2EE0BD488442D4
:1016E00008D10121202000F009FB0021202000F07A
:1016F00005FB22E0B848844208D10121402000F0D7
:10170000FDFA0021402000F0F9FA16E0B3488442C7
:1017100008D10121802000F0F1FA0021802000F0A2
:10172000EDFA0AE0AE48844207D10121801500F0AD
:10173000E5FA0021A01500F0E1FA10BD10B5012175
:10174000084600F0DBFA0021012000F0D7FA10BDB6
:101750002DE9F04102460025002600200023002448
:10176000002791F803C00CF00F0591F803C00CF0AE
:10177000100CBCF1000F03D091F802C04CEA050533
:1017800091F800C0BCF1000F31D0146800202BE0AC
:101790004FF0010C0CFA00F3B1F800C00CEA03069C
:1017A0009E4220D183004FF00F0C0CFA03F7BC438C
:1017B00005FA03FC4CEA040491F803C0BCF1280FBD
:1017C00006D14FF0010C0CFA00FCC2F814C00AE07C
:1017D00091F803C0BCF1480F05D14FF0010C0CFA91
:1017E00000FCC2F810C0401C0828D1D31460B1F826
:1017F00000C0BCF1FF0F34DD546800202EE000F182
:10180000080C4FF0010808FA0CF3B1F800C00CEA1C
:1018100003069E4221D183004FF00F0C0CFA03F710
:10182000BC4305FA03FC4CEA040491F803C0BCF184
:10183000280F05D100F1080C08FA0CF8C2F8148042
:1018400091F803C0BCF1480F07D100F1080C4FF02C
:10185000010808FA0CF8C2F81080401C0828CED302
:101860005460BDE8F0814FF6FF7101800221817064
:101870000421C17070470246002093680B400BB1F1
:10188000012000E0002070470146886880B2704760
:1018900002460020D3680B400BB1012000E000207D
:1018A00070470146C86880B2704701617047416166
:1018B00070470AB1016100E041617047C160704743
:1018C0004FF480320A438261816182618269826958
:1018D000704702460020434B18684FF6807318404B
:1018E00040EA021008433F4B186070473E49C86108
:1018F0007047F0B50A46002300240021002500F0BF
:101900000046B6F1004F02D1364EF16901E0354E86
:101910007168C0F3034583B200F44016B6F5401F6A
:1019200008D121F070612F4E766826F070662D4F39
:101930007E6012E000F48016B6F5801F06D1032603
:1019400006FA05F4A14341F0706106E0460D360148
:1019500003FA06F6B14341F0706122B1460D36013B
:1019600003FA06F6314300F00046B6F1004F02D10B
:101970001C4EF16101E01B4E7160F0BD30B50022DC
:101980008B071C0F0F2303FA04F2164B08338C103D
:1019900053F824309343134C08348D1044F8253009
:1019A00023468C1053F824308C07240F00FA04F4DB
:1019B00023430C4C08348D1044F8253030BD0A49BF
:1019C000DC3108607047000000080140000C014055
:1019D000001001400014014000180140001C0140AB
:1019E000002001400000014000002042DF48006864
:1019F00040F00100DD49086008464068DC490840C5
:101A0000DA49486008460068DA490840D749086062
:101A10000846006820F4802008600846406820F4EA
:101A2000FE0048604FF41F0088607047CF49096886
:101A300021F48031CD4A11601146096821F48021DA
:101A40001160B0F5803F03D0B0F5802F0ED106E0D5
:101A5000C649096841F48031C44A116007E0C349AE
:101A6000096841F4A021C14A116000E000BF00BF35
:101A7000704710B501460022002300204A11012AB8
:101A800002D1BA4C236806E0022A02D1B74C236A7D
:101A900001E0B64C636A01F01F02012494401C402F
:101AA0000CB1012000E0002010BD38B500200090EE
:101AB0000024002500BF3120FFF7DBFF054600981A
:101AC000401C00900098B0F5A06F01D0002DF2D01E
:101AD0003120FFF7CEFF08B1012400E000242046AA
:101AE00038BD01460020A14A106820F0F80040EA05
:101AF000C10010607047A04908607047024600208E
:101B00009A4B586820F47C1042EA01031843974B23
:101B10005860704798490866704701460020934A0C
:101B2000506820F003000843506070478F484068B9
:101B300000F00C007047014600208C4A506820F0ED
:101B4000F00008435060704701460020874A506803
:101B500020F4E06008435060704701460020834A4B
:101B6000506820F4605040EAC1005060704729B1CD
:101B70007E4A527A02437D4B5A7204E07B4A527A83
:101B800082437A4B5A7270477B49D831086070475C
:101B900001460020754A506820F4404008435060D8
:101BA00070470021714A20321170704A82F820106B
:101BB000012802D004280AD104E001216B4A203216
:101BC000117005E00521694A2032117000E000BF64
:101BD00000BF70476949086070476449096A01435A
:101BE000624A11627047654944390860704730B5F0
:101BF00000210022002400235C4D6D6805F00C01DB
:101C000021B1042905D0082923D105E05C4D0560E8
:101C100022E05B4D05601FE0544D6D6805F47012C5
:101C2000524D6D6805F48034022505EB92421CB9D3
:101C3000544D554305600BE04C4D6D6805F400357F
:101C40001DB1504D5543056002E04D4D55430560B3
:101C500002E04B4D056000BF00BF444D6D6805F0CC
:101C6000F0010909484D6B5C0568DD4045603F4D5A
:101C70006D6805F4E061090A434D6B5C4568DD4021
:101C800085603A4D6D6805F46051C90A3E4D6B5C44
:101C90004568DD40C560354D6D6805F44041890BF0
:101CA0003A4D6B5CC568B5FBF3F5056130BD29B1F4
:101CB0002E4A526902432D4B5A6104E02B4A526965
:101CC00082432A4B5A61704729B1284A92690243DC
:101CD000264B9A6104E0254A92698243234B9A611C
:101CE000704729B1214AD2690243204BDA6104E0EE
:101CF0001E4AD26982431D4BDA61704729B11B4AE3
:101D0000D2680243194BDA6004E0184AD268824371
:101D1000164BDA60704729B1144A12690243134B1B
:101D20001A6104E0114A12698243104B1A6170472C
:101D300012494039086070470F49C86470470B4921
:101D4000C87170470948406A40F08070074948628E
:101D5000704701460020054A92680A400AB10120F6
:101D600000E000207047014988727047001002406F
:101D70000000FFF8FFFFF6FE0000424280044242EE
:101D800000127A0000093D00F6090020060A002032
:101D900010B50446FB48844209D101218803FFF7AE
:101DA000ADFF00214FF48040FFF7A8FF32E0F64876
:101DB000844209D101214804FFF7ADFF00214FF40F
:101DC0000030FFF7A8FF25E0F048844209D1012147
:101DD0008804FFF7A0FF00214FF48020FFF79BFF4E
:101DE00018E0EB48844209D10121C804FFF793FFB2
:101DF00000214FF40020FFF78EFF0BE0E5488442FE
:101E000008D101210805FFF786FF00214FF480105B
:101E1000FFF781FF10BD2DE9F04786B005460E465D
:101E20000024A24600BFA1460027B08900B100BF30
:101E30002F462C8A4CF6FF700440F08804432C8215
:101E4000AC894EF6F3100440B0883189084371899B
:101E500008430443AC81AC8A4FF6FF400440B0898C
:101E60000443AC8201A8FFF7C2FEC648874202D1F4
:101E7000DDF810A001E0DDF80CA0A88900F4004016
:101E800040B10AEBCA0000EB0A1031684900B0FB10
:101E9000F1F807E00AEBCA0000EB0A10316889008C
:101EA000B0FBF1F86420B8FBF0F0040120096421D4
:101EB00001FB1089A88900F4004040B1322000EBFA
:101EC000C900B0FBF1F000F00700044308E0322045
:101ED00000EB09106421B0FBF1F000F00F000443A7
:101EE0002C8106B0BDE8F0874FF416510160002147
:101EF0008180C18001810C21418100218181704755
:101F000010B502460020108A4FF2FF0318400B88DC
:101F10004C8823438C882343CC8823431843108266
:101F200010BD0021018041808180C180704721B1B6
:101F3000828942F40052828104E082894DF6FF7367
:101F40001A4082817047F0B5034600240026002520
:101F5000002040F66A17B94200D100BF1846C1F30D
:101F6000421401F01F06012707FA06F5012C01D1E2
:101F70000C3004E0022C01D1103000E014301AB112
:101F800007682F43076002E00768AF430760F0BDB2
:101F90001AB1838A0B43838202E0838A8B43838254
:101FA0007047028A4FF6F0731A400282028A0A438F
:101FB0000282704782894FF2FF731A4082818289C0
:101FC0000A438281704721B1828942F002028281F4
:101FD00004E082894FF6FD731A4082817047028ABD
:101FE0004FF6DF731A400282028A0A430282704768
:101FF00021B1028A42F48042028204E0028A4BF656
:10200000FF731A4002827047C1F308028280704752
:1020100001468888C0F308007047818941F00101BA
:1020200081817047028BD2B20283028B42EA012285
:1020300002837047028B02F47F420283028B0A43C1
:102040000283704721B1828A42F02002828204E03A
:10205000828A4FF6DF731A408282704721B1828AEA
:1020600042F01002828204E0828A4FF6EF731A4037
:102070008282704721B1828A42F00802828204E0A3
:10208000828A4FF6F7731A408282704721B18289A3
:1020900042F40042828103E08289C2F30E0282810F
:1020A000704721B1828A42F40062828204E0828A0F
:1020B0004FF2FF731A4082827047828A4FF6FB7399
:1020C0001A408282828A0A438282704721B1828AC0
:1020D00042F00202828204E0828A4FF6FD731A40C7
:1020E0008282704702460020B1F5007F00D100BF18
:1020F00013880B400BB1012000E00020704701F471
:102100000072B2F5007F00D100BFCA430280704761
:1021100070B50246002400230025002040F66A1610
:10212000B14200D100BFC1F3421501F01F030126E7
:1021300006FA03F3012D02D19689334006E0022D01
:1021400002D1168A334001E0968A33400C120126F0
:1021500006FA04F41688344013B10CB1012000E0F3
:10216000002070BD10B50022002340F66A14A14281
:1021700000D100BF0A1201249440A3B2DC430480C2
:1021800010BD0000003801400044004000480040FD
:10219000004C00400050004010B50446FE48844208
:1021A00008D10121C014FFF7A9FD0021E014FFF7B9
:1021B000A5FDC4E0B4F1804F08D101210846FFF726
:1021C000AAFD00210120FFF7A6FDB8E0F3488442F4
:1021D00008D101210220FFF79EFD00210220FFF718
:1021E0009AFDACE0EE48844208D101210420FFF7BB
:1021F00092FD00210420FFF78EFDA0E0E948844213
:1022000008D101210820FFF786FD00210820FFF7F3
:1022100082FD94E0E448844208D101211020FFF7B8
:102220007AFD00211020FFF776FD88E0DF48844228
:1022300008D101212020FFF76EFD00212020FFF7AB
:102240006AFD7CE0DA48844208D101214014FFF79E
:1022500055FD00216014FFF751FD70E0D548844220
:1022600009D10121C804FFF749FD00214FF40020E6
:10227000FFF744FD63E0D048844209D101210805FD
:10228000FFF73CFD00214FF48010FFF737FD56E0CB
:10229000CA48844209D101214805FFF72FFD0021DA
:1022A0004FF40010FFF72AFD49E0C548844208D1E9
:1022B00001214020FFF72FFD00214020FFF72BFDDB
:1022C0003DE0C048844208D101218020FFF723FD72
:1022D00000218020FFF71FFD31E0BB48844208D178
:1022E00001218015FFF717FD0021A015FFF713FD51
:1022F00025E0B648844209D101210804FFF7FEFC1D
:1023000000214FF48030FFF7F9FC18E0B048844218
:1023100009D101214804FFF7F1FC00214FF40030FE
:10232000FFF7ECFC0BE0AB48844208D101218804A4
:10233000FFF7E4FC00214FF48020FFF7DFFC10BD25
:1023400000220288944B98420ED0994B98420BD0B1
:10235000B0F1804F08D0914B984205D0904B9842F5
:1023600002D0904B984204D14FF68F731A404B889D
:102370001A438D4B984207D08C4B984204D04FF6AD
:10238000FF431A40CB881A4302808B8883850B88D1
:102390000385814B98420BD0854B984208D08B4BDC
:1023A000984205D08A4B984202D08A4B984201D17C
:1023B0000B7A038601238382704770B500240022C4
:1023C0000023058C4FF6FE7635400584028C838809
:1023D000048B4FF68F752C40B51E2C400D882C4376
:1023E000751E2A400D892A434D882A436A4DA8420A
:1023F0000BD06F4DA84208D0744DA84205D0744D43
:10240000A84202D0734DA84213D14FF6F7752A4067
:102410004D892A434FF6FB752A408D882A434FF693
:10242000FF652B404FF6FF552B408D892B43CD89FF
:102430002B4383800483CD888586028470BD70B56C
:10244000002400220023058C4FF6EF7635400584EA
:10245000028C8388048B48F6FF752C404FF6FF45AD
:102460002C400D884FF6FF7606EA05252C434FF6E3
:10247000DF752A400D8906EA05152A434D8806EACC
:1024800005152A43444DA84202D0494DA8421DD10A
:102490004FF67F752A404D894FF6FF7606EA0515FF
:1024A0002A434FF6BF752A408D8806EA05152A4350
:1024B0004FF6FF352B404FF2FF752B408D8906EA12
:1024C00085052B43CD8906EA85052B43838004834C
:1024D000CD880587028470BD70B5002400220023DA
:1024E000058C4FF6FF6635400584028C8388848B0B
:1024F0004FF68F752C404FF6FC752C400D882C4301
:102500004FF6FF552A400D894FF6FF7606EA05255E
:102510002A434D8806EA05252A431F4DA84202D0CA
:10252000234DA8421DD14FF2FF752A404D894FF629
:10253000FF7606EA05252A434FF6FF352A408D88A7
:1025400006EA05252A434EF6FF752B404DF6FF752A
:102550002B408D8906EA05152B43CD8906EA051522
:102560002B4383808483CD888587028470BD70B5BA
:10257000002200230024058C4EF6FF7635400584AA
:10258000038C8488828B48F6FF752A404FF6FF45FE
:102590002A400D8820E00000002C0140000400408B
:1025A00000080040000C00400010004000140040F3
:1025B00000340140004C01400050014000540140F3
:1025C00000180040001C0040002000400040014076
:1025D00000440140004801404FF6FF7606EA052519
:1025E0002A434DF6FF752B400D8906EA05352B432E
:1025F0004D8806EA05352B43FA4DA84202D0FA4D24
:10260000A84208D14BF6FF752C408D894FF6FF7616
:1026100006EA85152C4384808283CD88A0F840503B
:10262000038470BD828B4FF2FF331A408283828B0A
:102630004FF6FF7303EA01231A4382837047F0B514
:102640000C461546002200210026078C4EF6FF7C22
:1026500007EA0C070784828B018C4FF6FF7707EAA5
:10266000043640F6FF473A404FF6FF7707EA052762
:102670003A434FF6FF7707EA03373A43D94FB84258
:102680000ED0D94FB8420BD0B0F1804F08D0D74F01
:10269000B84205D0D64FB84202D0D64FB84206D184
:1026A0004DF6FF77394046F48057394305E047F649
:1026B000FF57394044F48057394382830184F0BD89
:1026C000828B4FF6F3731A408283828B0A43828394
:1026D0007047F0B50C461546002200210026078CF5
:1026E0004FF6FF6C07EA0C070784828B018C4FF6CC
:1026F000FF7707EA04264FF60C773A404FF6FF774C
:1027000007EA03172F433A43B64FB8420ED0B64FED
:10271000B8420BD0B0F1804F08D0B44FB84205D0CA
:10272000B34FB84202D0B34FB84206D14FF6FF576D
:10273000394046F48077394305E04FF2FF5739407E
:1027400044F48077394382830184F0BD028B4FF2D9
:10275000FF331A400283028B4FF6FF7303EA012313
:102760001A4302837047F0B50C461546002200213B
:102770000026078C4FF6EF7C07EA0C070784028BD4
:10278000018C4FF6FF7707EA041640F6FF473A4000
:102790004FF6FF7707EA03373A434FF6FF7707EA2A
:1027A00005273A438F4FB8420ED08F4FB8420BD017
:1027B000B0F1804F08D08D4FB84205D08C4FB84251
:1027C00002D08C4FB84206D14FF6DF77394046F041
:1027D0001007394305E04FF65F77394044F01007A2
:1027E000394302830184F0BD028B4FF6F3731A4024
:1027F0000283028B0A4302837047F0B50C461546EC
:1028000000220021068C4FF6FE773E400684028BA4
:10281000018C4FF60C7632407E1C06EA03162E43DE
:102820003243704EB0420ED06F4EB0420BD0B0F17A
:10283000804F08D06D4EB04205D06D4EB04202D0F0
:102840006C4EB04206D14FF6FD76314044F00106A1
:10285000314305E04FF6F576314044F0010631434F
:1028600002830184F0BD70B505460C465D48854283
:102870000ED05D4885420BD0B5F1804F08D05B4843
:10288000854205D05A48854202D05A48854200D137
:1028900000E000BF208850B92389A28861882846BB
:1028A000FFF7ABFFE1882846FFF79EFF25E0208871
:1028B00004280AD12389A28861882846FFF753FF9C
:1028C000E1882846FFF742FF17E0208808280AD150
:1028D0002389A28861882846FFF7FBFEE188284605
:1028E000FFF7EEFE09E02389A28861882846FFF7FA
:1028F000A6FEE1882846FFF795FE70BD2DE9F04160
:1029000005460C4600260127608808B9022600E02B
:102910000026A088012801D1022700E00127208895
:10292000A0B92389A28861882846FFF766FFE1885D
:102930002846FFF759FF23893A4631462846FFF7D4
:1029400012FFE1882846FFF701FF13E02389A288E0
:1029500061882846FFF707FFE1882846FFF7F6FE63
:1029600023893A4631462846FFF747FFE188284643
:10297000FFF73AFFBDE8F0810A884B881A438B883D
:102980001A43CB881A430B891A434B891A438B8904
:102990001A43A0F8442070474FF6FF718180002150
:1029A0000180C18041800172704700210180418017
:1029B0008180C180018141818181C1817047002175
:1029C00001804180012181800021C1800181704707
:1029D0000021018041808180C1800181418181810C
:1029E00070470000002C014000340140000400400A
:1029F00000080040000C004021B1028842F00102B2
:102A0000028004E002884FF6FE731A40028070478D
:102A100031B1B0F8442042F40042A0F8442005E06F
:102A2000B0F84420C2F30E02A0F8442070471AB157
:102A300083890B43838102E083898B4383817047C1
:102A40008182704741EA0203A0F8483070471AB10A
:102A500083890B43838102E083898B4383817047A1
:102A600001894FF6F8721140018170470A46002132
:102A700001894FF68F73194011430181704730B5BA
:102A800004460D4629462046FFF7F0FF208940F016
:102A90000700208130BD2DE9F04104460D46164661
:102AA0001F46602D06D13B46012231462046FFF7E6
:102AB0005AFE05E03B46012231462046FFF79DFEC7
:102AC00029462046FFF7D2FF208940F007002081E9
:102AD000BDE8F08130B50C4600210189C9B24FF63E
:102AE000FF7505EA0325154325432943018130BDC0
:102AF0002DE9F04105460E46174698460024434608
:102B00003A4631462846FFF7E5FF2C894FF6F87024
:102B1000044044F007044FF68F70044044F0700402
:102B20002C81BDE8F081F0B504460D4616461F46DF
:102B30003B46324629462046FFF7CCFF208940F429
:102B400080402081F0BD0185828270470A460021C5
:102B500001884FF68F731940114301807047F0B51B
:102B60000C4615461E460021002200230189028BD7
:102B7000038C4FF6F877394021434FF6FC473A4033
:102B800040F201173A434FF6DD773B404FF6FF77AF
:102B900007EA06172F433B43018102830384F0BDFC
:102BA0000A460021018B4FF68F73194011430183B0
:102BB00070470A460021018B48F6FF7319404FF613
:102BC000FF7303EA02231943018370470A46002179
:102BD000818B4FF68F7319401143818370470A46EA
:102BE0000021818B48F6FF7319404FF6FF7303EA0B
:102BF000022319438183704721B1028842F0800289
:102C0000028004E002884FF67F731A40028070470A
:102C100021B1828842F00402828004E082884FF66B
:102C2000FB731A408280704721B1828842F008020B
:102C3000828004E082884FF6F7731A4082807047E2
:102C400021B1828842F00102828004E082884FF63E
:102C5000FE731A40828070470A460021018B4FF6AE
:102C6000F77319401143018370470A460021018B15
:102C70004FF2FF7319404FF6FF7303EA0223194323
:102C8000018370470A460021818B4FF6F773194084
:102C90001143818370470A460021818B4FF2FF73F5
:102CA00019404FF6FF7303EA0223194381837047EB
:102CB0000A460021018B4FF6FB7319401143018333
:102CC00070470A460021018B4FF6FF3319404FF63B
:102CD000FF7303EA02231943018370470A46002168
:102CE000818B4FF6FB7319401143818370470A466D
:102CF0000021818B4FF6FF3319404FF6FF7303EA33
:102D000002231943818370470A460021018B4FF645
:102D10007F7319401143018370470A460021018BDC
:102D2000C1F30E014FF6FF7303EA02231943018337
:102D300070470A460021818B4FF67F73194011437B
:102D4000818370470A460021818BC1F30E014FF643
:102D5000FF7303EA02231943818370470A46002167
:102D6000018C4FF6FD7319401143018470470A46E8
:102D70000021018C4FF6F77319401143018470470D
:102D80000A460021018C4FF6DF7319404FF6FF739E
:102D900003EA02131943018470470A460021018C9B
:102DA0004FF67F7319404FF6FF7303EA021319437E
:102DB000018470470A460021018C4FF6FF531940E9
:102DC0004FF6FF7303EA02231943018470470A4652
:102DD0000021018C4FF2FF7319404FF6FF7303EA95
:102DE00002231943018470470A460021018C4DF6E5
:102DF000FF7319404FF6FF7303EA0233194301844E
:102E0000704730B5002301248C40A3B2048C9C434E
:102E10000484048C02FA01F5ADB22C43048430BD65
:102E200030B5002304248C40A3B2048C9C4304845A
:102E3000048C02FA01F5ADB22C43048430BD70B5A8
:102E40000346002000241846183001258D40ACB2FE
:102E50001D8CA5431D8409B1082909D100EB61002F
:102E6000056825F0700505600568154305600EE0EE
:102E70000D1FC5F34E052844056825F4E04505609F
:102E800005684FF6FF7606EA02263543056070BDF9
:102E900021B1028842F00202028004E002884FF66B
:102EA000FD731A400280704721B1028842F004028B
:102EB000028004E002884FF6FB731A4002807047DC
:102EC00021B1828842F08002828004E082884FF63D
:102ED0007F731A408280704702884FF6F7731A405A
:102EE000028002880A430280704782884FF68F73FF
:102EF0001A40828082880A438280704702894FF696
:102F0000F8731A40028102890A43028170470289DC
:102F10004FF67F731A40028102890A43028170478B
:102F2000818470478185704781867047018770472B
:102F300081877047A0F84010704702884FF6FF4322
:102F40001A40028002880A43028070470146888E38
:102F500070470146088F70470146888F70470146C9
:102F6000B1F8400070470146888C70470146088DD3
:102F7000704702460020138A0B400BB1012000E08D
:102F800000207047CA430282704730B502460020D5
:102F900000230024158A05EA0103958905EA010446
:102FA00013B10CB1012000E0002030BDCA43028201
:102FB00070470000002044490860091D0860091D91
:102FC0000860091D086041483F4914310860704796
:102FD00000213D498279002A3AD00A4612680368E6
:102FE0009A430B461A600A1D126803689A430B1D28
:102FF0001A60027911440A6803681A430A60324A67
:103000000832126803689A432F4B08331A601A1D5E
:10301000126803689A432C4B0C331A604279102AC9
:103020000ED11A1F126803681A43274B08331A601F
:103030001A1D126803681A43234B0C331A600DE003
:103040002149427911440A6803681A430A6005E07D
:10305000027911440A6803689A430A6070470021A4
:10306000016001710C214171002181717047164985
:10307000103109680143144A10321160704701464B
:103080000020114A143212680A400AB1012000E0FF
:10309000002070470C491431086070470146002039
:1030A0000022094B1B6803EA0102074B14331B681B
:1030B0000B4013B10AB1012000E000207047024923
:1030C000143108607047000000040140FFFF0F004A
:1030D00070B5044600252648008800F4004058B129
:1030E000002023490988C1F30E01224A5054214689
:1030F000104601F021FD0546284670BD2DE9F0413E
:1031000004460E4615460027002019490880FF2C6A
:103110000AD800BF1848008800F040000028F9D005
:103120001549091D0C8003E0214614A0FDF7A8FBFA
:10313000DEB1D5B112E00A20FEF7CFF80C480088C6
:1031400000F4004050B13046FFF7C2FF18B1002034
:103150000749088006E0002005490880681E80B203
:103160000500E8D100BF05B901273846BDE8F08168
:1031700028080020840A00200048004025730D0A1A
:103180000000000010B54FF4E130FDF72AFB10BD40
:103190001CB50020B14908600FE00A22B0A1B2A01E
:1031A000FFF7ACFF00B90FE0AC480068C043B0497E
:1031B000C1F8B4016420FEF790F80522ADA1AAA0E1
:1031C000FFF79CFF0028E8D100BF0522ABA1ACA00F
:1031D000FFF794FF10B9ABA001F0F2FAABA2ADA1DA
:1031E000AF4801F0F9FA0A22A4A1AD48FFF786FF23
:1031F00020B9AB49ABA001F0E3FA03E0A849ACA0C9
:1032000001F0DEFAADA2B0A1A54801F0E5FA0A226C
:103210009AA1A348FFF772FF20B9A149A1A001F02C
:10322000CFFA03E09E49A2A001F0CAFA0622A9A1A2
:103230009B4801F0D1FA0A2290A19948FFF75EFF5E
:1032400020B9974997A001F0BBFA03E0944998A0F0
:1032500001F0B6FA0120002108234FF4E132CDE954
:1032600000109FA18E4801F0B7FA0A2283A18C4872
:10327000FFF744FF20B98A498AA001F0A1FA03E0D0
:1032800087498BA001F09CFA05229AA1844801F09D
:10329000A3FA0A2279A18248FFF730FF20B98049BA
:1032A00080A001F08DFA03E07D4981A001F088FA49
:1032B0000A2272A193A0FFF721FF18B996A001F08E
:1032C0007FFA02E09AA001F07BFA0A226BA19FA08C
:1032D000FFF714FF18B9A0A001F072FA02E0A3A052
:1032E00001F06EFA0A2265A1A6A0FFF707FF18B940
:1032F000A9A001F065FA02E0AEA001F061FA0A228D
:103300005EA1B4A0FFF7FAFE18B9B6A001F058FA12
:1033100002E0B9A001F054FA5322BDA1604801F0C7
:103320005BFA0A2255A15E48FFF7E8FE20B95C4926
:103330005CA001F045FA03E059495DA001F040FAB4
:103340000120464908601CBD10B5B4480178B4A0FE
:10335000FDF796FAB1480178B6A001F031FAAF480E
:103360000078401CAD49087008460078FF2801D15C
:103370000020087010BD10B504462146B3A0FDF72B
:103380007FFA10BD70B505460C46B148008800F4C0
:10339000004080B1AE480088C0F30E0020600020DD
:1033A000AC4A21685054AA4908801146284601F0C9
:1033B000D5FB002070BD0120FCE770B5002500247E
:1033C000A348008800F40040002839D0A0480088B5
:1033D000C0F30E0400209F4908559D4908809EA017
:1033E00001F0EEF900BF0DE000BF40219B48FEF761
:1033F00079FE0028F9D09748415D9848FEF704FE11
:10340000681C85B2A542EFDB95A1924801F094FBC0
:1034100028B1082C03D100201049086009E093A1CD
:103420008C4801F089FB20B1092C02D101200B4905
:1034300008602146874801F0D4FB43A001F0C0F9A1
:1034400070BD704710B58CA001F0BAF9FFF79AFE75
:10345000FFF79EFEFFF7F5FF10BD0000B40122420A
:103460004552524F520000002B2B2B6100000000F0
:1034700000002242612B6F6B000000004F4B0000E8
:10348000415400004154204F4B0D0A00536F757496
:103490006800000041542B4E414D453D257300000E
:1034A000B4110020257320204F4B0D0A00000000AE
:1034B000257320204552524F520D0A0041544B2D86
:1034C000424C45303100000041542B48454C4C4F94
:1034D0003D25730041542B54504C3D2564000000A1
:1034E00041542B554152543D25642C25642C2564B0
:1034F0002C25640041542B41445054494D3D2564D2
:103500000000000041542B4C494E4B504153534551
:103510004E3D4F464600000041542B4C494E4B5007
:10352000415353454E3D4F464620204F4B0D0A0018
:1035300041542B4C494E4B50415353454E3D4F4601
:103540004620204552524F520D0A000041542B4C48
:103550004544454E3D4F4E0041542B4C4544454E4D
:103560003D4F4E20204F4B0D0A00000041542B4C84
:103570004544454E3D4F4E20204552524F520D0A74
:103580000000000041542B534C415645534C4545D7
:1035900050454E3D4F46460041542B534C415645F5
:1035A000534C454550454E3D4F464620204F4B0D10
:1035B0000A00000041542B534C415645534C45459D
:1035C00050454E3D4F464620204552524F520D0A1F
:1035D0000000000041542B4D41585055543D4F467A
:1035E0004600000041542B4D41585055543D4F4624
:1035F0004620204F4B0D0A0041542B4D4158505549
:10360000543D4F464620204552524F520D0A00006D
:1036100041542B4D4F44453D256300000A0A0020CC
:1036200041544B2D424C45303120544553542025B4
:10363000640D0A00533A2041544B2D424C45303121
:1036400020544553542025640D0A000025730A00B8
:1036500028080020840A0020523A00000038014067
:103660002B4C4544303A4F4E000000002B4C454453
:10367000303A4F46460000000D0A41544B2D424C53
:10368000453031C4A3BFE920CAD6BBFACDA8D0C506
:10369000CAB5D1E90D0A0D0A0000000070B5054653
:1036A0000C46FDF73CF9D020FDF7E7F9FDF778F976
:1036B00018B1FDF756F9012070BD2846FDF7DDF978
:1036C000FDF76EF92046FDF7D8F9FDF769F918B155
:1036D000FDF747F90120EFE7FDF743F90020EBE79D
:1036E00070B504460025BC2C01DB012510E0622CDE
:1036F00001DB02250CE02A2C01DB032508E0142C59
:1037000001DB042504E00A2C01DB052500E0062589
:1037100029461A20FFF7C2FF70BD70B50446B4F504
:103720007A7F01DD4FF47A74042C00DA04244FF41C
:103730007A7090FBF4F0401EC5B229461920FFF7BD
:10374000ADFF0546264604EBD671C1F34F00FFF7E7
:10375000C7FF70BD70B50446FDF7E1F8D020FDF756
:103760008CF9FDF71DF92046FDF787F9FDF718F9EB
:10377000FDF7D5F8D120FDF780F9FDF711F900200C
:10378000FDF7A8F90546FDF7ECF8284670BD10B521
:103790000446E006010E1C20FFF780FF10BD10B5A7
:1037A0000446E006010E1B20FFF778FF10BD10B5A0
:1037B000FDF798F880216B20FFF770FF6420FDF77C
:1037C0008CFD00216B20FFF769FF0320FFF7E7FF67
:1037D0000020FFF7DCFF6420FFF79FFF0021382067
:1037E000FFF75CFF00216A20FFF758FF002123202C
:1037F000FFF754FF80213720FFF750FF7520FFF7B8
:10380000A9FF0446682C0BD101216B20FFF746FF6E
:1038100000216C20FFF742FF6420FFF77EFF01E0EC
:10382000012010BD0020FCE72DE9F04106460F46BF
:1038300014461D46FDF773F8002141EA4601C8B25F
:10384000FDF71BF9FDF7ACF820B1FDF78AF8012070
:10385000BDE8F0813846FDF710F9FDF7A1F8FDF756
:103860005EF8012101EB4601C8B2FDF706F9FDF74C
:1038700097F80DE0012C04D10020FDF72BF92870FA
:1038800003E00120FDF726F92870601EC4B26D1C0C
:10389000002CEFD1FDF765F80020D9E72DE9F84FAE
:1038A0006B46022241216820FFF7BEFF9DF8010010
:1038B0009DF8001040EA01200FFA80FA504603F00C
:1038C0008DFD80460022FE4B03F030FC0646FD4A8B
:1038D000FD4B03F06FFB044603F03AFB8346FB49C4
:1038E000584604F0D7FA044604F038FA00B2BDE8AE
:1038F000F88F2DE9FC4104460D4616466B4606221C
:1039000043216820FFF790FF0746BFB99DF80100EB
:103910009DF8001040EA012000B220809DF80300CD
:103920009DF8021040EA012000B228809DF80500B1
:103930009DF8041040EA012000B230803846BDE80E
:10394000FC812DE9FC4104460D4616466B460622D5
:103950003B216820FFF768FF0746BFB99DF80100CB
:103960009DF8001040EA012000B220809DF803007D
:103970009DF8021040EA012000B228809DF8050061
:103980009DF8041040EA012000B230803846BDE8BE
:10399000FC812DE9F04105460E4617469846FCF796
:1039A000BEFF002141EA4501C8B2FDF766F8FCF709
:1039B000F7FF20B1FCF7D5FF0120BDE8F0813046CC
:1039C000FDF75BF8FCF7ECFF00240CE018F80400AE
:1039D000FDF753F8FCF7E4FF18B1FCF7C2FF012034
:1039E000EBE7601CC4B2BC42F0DBFCF7BAFF00207E
:1039F000E3E72DE9F04F85B004460D4616461F4615
:103A0000DDE90FABDDF83890200A8DF80000E0B258
:103A10008DF80100280A8DF80200E8B28DF8030045
:103A2000300A8DF80400F0B28DF80500380A8DF8E0
:103A30000600F8B28DF807004FEA19208DF808004B
:103A400009F0FF008DF809004FEA1A208DF80A00EE
:103A50000AF0FF008DF80B004FEA1B208DF80C00D8
:103A60000BF0FF008DF80D001198000A8DF80E0084
:103A70001198C0B28DF80F001298000A8DF810004E
:103A80001298C0B28DF8110000208DF812008DF848
:103A9000130080460FE000BF40218D48FEF722FB57
:103AA0000028F9D01DF808108948FEF7ADFA08F192
:103AB000010000F0FF08B8F1140FECDB05B0BDE821
:103AC000F08F10B5044600BF40218148FEF70AFB85
:103AD0000028F9D021467E48FEF796FA10BDF0B5D1
:103AE00089B006460F4615461C2D01DD09B0F0BD14
:103AF000002101AAE81C115488208DF804008DF8DB
:103B000005608DF80650002405E0395DE01C01AA2F
:103B10001154601CC4B2AC42F7DB00240AE001A9D6
:103B2000E81C085C095D0844C1B201AAE81C1154F4
:103B3000601CC4B2E81C8442F1DB002405E001A94A
:103B4000085DFFF7BEFF601CC4B2281D8442F6DB8F
:103B500000BFCBE72DE9FE4304460D4617461E463F
:103B6000DDE90A89200A8DF80000E0B28DF8010035
:103B7000280A8DF80200E8B28DF80300380A8DF8A3
:103B80000400F8B28DF80500300A8DF80600F0B296
:103B90008DF807004FEA18208DF8080008F0FF00A4
:103BA0008DF809004FEA19208DF80A0009F0FF008E
:103BB0008DF80B000C226946A120FFF790FFBDE8AD
:103BC000FE832DE9F04F87B004460D4616461F468A
:103BD000DDE911ABDDF840904FF0000806E0002071
:103BE0000DF8080008F1010000F0FF08B8F11C0F03
:103BF000F5DB200A8DF80000E0B28DF80100280AFC
:103C00008DF80200E8B28DF80300300A8DF8040048
:103C1000F0B28DF80500380A8DF80600F8B28DF87C
:103C200007004FEA19208DF8080009F0FF008DF811
:103C300009004FEA1A208DF80A000AF0FF008DF8FB
:103C40000B004FEA1B208DF812000BF0FF008DF8DF
:103C500013001398000A8DF814001398C0B28DF861
:103C600015001498000A8DF816001498C0B28DF84B
:103C700017001C226946AF20FFF731FF07B0BDE8EF
:103C8000F08F2DE9FF4F9DB0894692469B462A9CB6
:103C900015AA16A917A8FFF72CFE00287ED112AA94
:103CA00013A914A8FFF74DFE0028F7D1BDF9500065
:103CB00004F090F8099003F0F5FE0022054B0BE0AC
:103CC00000407540A4703D0AD74342400000C842FE
:103CD000004800400000E040CDE90A0103F026FA68
:103CE00000224FF08043CDE90C0103F0CBFBCB4A1F
:103CF000CB4BCDE90E0103F0C5FBCDE9100103F07C
:103D000027F90546BDF94C0004F064F8099003F06A
:103D1000C9FE0022C34BCDE90A0103F007FA0022D5
:103D20004FF08043CDE90C0103F0ACFBBB4ABC4B28
:103D3000CDE90E0103F0A6FBCDE9100103F008F96F
:103D40001B90BDF9480004F045F8099003F0AAFE65
:103D50000022B44BCDE90A0103F0E8F900224FF04C
:103D60008043CDE90C0103F08DFBAC4AAC4BCDE9AF
:103D70000E0103F087FBCDE9100103F0E9F81A907A
:103D8000484603F08FFECDE90E01BDF95C0004F05A
:103D900021F8079003F086FE002200E03BE1A14BF2
:103DA000CDE9080103F0C2F900229F4BCDE90A01D9
:103DB00003F068FBCDE90C01DDE90E2303F088FD7B
:103DC000CDE9100103F0C4F80646504603F06AFE40
:103DD000CDE90E01BDF9580003F0FCFF079003F098
:103DE00061FE00228F4BCDE9080103F09FF900220C
:103DF0008D4BCDE90A0103F045FBCDE90C01DDE96E
:103E00000E2303F065FDCDE9100103F0A1F807468C
:103E1000584603F047FECDE90E01BDF9540003F00A
:103E2000D9FF079003F03EFE00227E4BCDE908014A
:103E300003F07CF900227C4BCDE90A0103F022FB60
:103E4000CDE90C01DDE90E2303F042FDCDE91001BF
:103E500003F07EF880461A9803F024FE00224FF00B
:103E60008043CDE9000102F045FBCDE9040128467D
:103E700003F018FE00224FF08043CDE9000102F06C
:103E800039FBCDE90201DDE9042303F093F8CDE924
:103E9000060103F00BF8CDE90A011B9803F002FEBE
:103EA000CDE90801DDE90A2303F040F9CDE90C0171
:103EB00002F010FA5D4A5E4BCDE90E0103F0E2FA22
:103EC000CDE9100103F044F819901A9803F0EAFDC7
:103ED00000224FF08043CDE9000102F00BFBCDE959
:103EE00004011B9803F0DEFD00224FF08043CDE972
:103EF000000102F0FFFACDE90201DDE9042303F03D
:103F000059F8CDE9060102F0D1FFCDE90A0185F0AB
:103F10000040079003F0C6FDCDE90801DDE90A2362
:103F200003F004F9CDE90C0102F0D4F93F4A404B0B
:103F3000CDE90E0103F0A6FACDE9100103F008F86F
:103F4000189031461D9803F0A5FF08903948016884
:103F5000089803F0D3FD099003F0A4FD364A374BCF
:103F6000CDE90A0103F08EFACDE90E01199803F0AC
:103F700099FD334A334BCDE90A0103F083FACDE9C9
:103F80000C01DDE90E2303F015F8CDE9100102F074
:103F9000DFFF206027492068086039461D9803F03C
:103FA00079FF089028480168089803F0A7FD099058
:103FB00003F078FD204A214BCDE90A0103F062FAB3
:103FC000CDE90E01189803F06DFD1D4A1D4BCDE99A
:103FD0000A0103F057FACDE90C01DDE90E2302F0E6
:103FE000E9FFCDE9100102F0B3FF60601649606897
:103FF000086041461D9803F04DFF11901348016879
:10400000119803F07BFDA0601049A0680860E6608D
:104010002761C4F8148021B0BDE8F08F5C8FC2F531
:10402000285C22400000E04000409F40E79AD561B4
:1040300094A94C400C0A0020CDCCCCCCCCCCEC3F8D
:104040009A9999999999B93F100A0020140A002069
:104050002DE9F84F8146D6480090D648036802689B
:1040600001684846FFF70DFED348006803F01AFDCB
:1040700007463A460B460020D04903F057F805465C
:1040800002F066FFCE490860C9490868CD49096851
:1040900004F008F882465146CB48006803F02EFD34
:1040A000C9490860C6480168C748006803F0BEFFF8
:1040B00004D2C3480068C44908600FE0C0480068E3
:1040C00080F00045C0480168284603F0AFFF05D2E4
:1040D000BB48006880F00040BB490860B448C16834
:1040E000BA48006803F0D6FE0646B7480168B248F1
:1040F000006803F0CFFE07465146B548006803F05C
:10410000C9FE8046394603F0F9FC0546314603F006
:10411000F5FC04462046BDE8F88F2DE9F04F85B048
:104120000446AC4800F0EFF9AB48006803F0BAFC75
:1041300005464FF06632A94B03F0A4F907468846BE
:10414000A449086803F0AEFC05464FF03332A44B97
:1041500003F098F93A464346CDE9020102F02AFFFE
:10416000824602F0F5FE9C4908609E48006803F014
:1041700099FC07464FF06632984B03F083F90546E9
:104180000E469449486803F08DFC07464FF03332E1
:10419000934B03F077F982462A46334602F00AFF32
:1041A000CDE9020102F0D4FE8E4908608E48006815
:1041B00003F078FC07464FF066328C4B03F062F94F
:1041C00082468B46204603F06DFC0746884A894BA1
:1041D00003F058F9054652465B4602F0EBFECDE986
:1041E000020102F0B5FE04467F4804608248006880
:1041F00003F058FC05462A460B4600206F4902F0A2
:1042000095FF074602F0A4FE7C490860204603F0B3
:1042100049FC07468846704801687248006803F008
:104220006DFC019003F03EFC0022754BCDE90201CC
:1042300003F028F982463A46434603F049FB81F0F1
:104240000041054602F084FE04906E48049900681F
:1042500003F054FC6B4908606848016869480068CD
:1042600003F0E4FE04D265480068664908600FE088
:104270006248006880F0004562480168284603F003
:10428000D5FE05D25D48006880F000405D490860B9
:104290005C4801685848006803F0FCFD05465A4830
:1042A0000499006803F0F6FD0646294603F026FC53
:1042B0008146484605B0BDE8F08F2DE9FE4F044623
:1042C0005248006803F0EEFB0746514A514B03F099
:1042D000D9F805460E46204603F0E4FB0746444A5B
:1042E0004D4B03F0CFF82A463346CDE9000102F0EA
:1042F00061FE814602F02CFE0446444804602C48CE
:104300008168204603F0C3FE029029484169434872
:10431000006803F0BFFD054641480299006803F0BC
:10432000B9FD0646294603F0E9FB83465846BDE839
:10433000FE8F2DE9F05F06460C461D462846FFF726
:1043400087FE81463046FFF7E8FE82462046FFF7AB
:10435000B4FF83461649086803F0A4FB21F000412E
:10436000074600222F4B03F051F814D2514648461D
:1043700003F0C4FB0746594603F0C0FB2A49086016
:104380005146484603F0BAFB0746594603F08AFEF9
:104390002649086004E0002023490860234908609A
:1043A000224801682048006800F053F9BDE8F09FFA
:1043B00018120020340A0020240A002000209C400B
:1043C0002C0A0020300A0020380A0020280A002089
:1043D000200A0020180A0020480A00206666E63FEE
:1043E0003333D33F4C0A0020500A00206666EE3F6C
:1043F0009A9999999999A93F400A0020440A002066
:104400000000E03F540A00203C0A0020600A00201F
:10441000CDCCCCCCCCCCEC3F9999B93F5C0A0020F8
:10442000580A002000003440640A0020680A002076
:1044300010B546480068012818D14549088800EBA6
:10444000D071444A1288B2EB610F03DD4248434900
:10445000086003E04FF07E504049086001203C496D
:1044600008803F480088401C3D4908800120FEF735
:1044700026FE10BD10B5354808300068012806D169
:104480003449088037480088401C36490880042099
:10449000FEF715FE10BD10B52C481030006801283D
:1044A00018D13149088800EBD071304A1288B2EB3C
:1044B000610F04DD4FF07E502D49086002E0264870
:1044C0002B4908600120284908802A480088401CA0
:1044D000284908801020FEF7F2FD10BD10B51B48DA
:1044E00014300068012806D120490880224800883D
:1044F000401C214908802020FEF7E1FD10BD10B5C9
:10450000FCF7B8FF10BD70B504461A48008803F0E8
:1045100079FC054616480168284603F0BBFC20607C
:104520000F48008803F06EFC05460C4801682846D9
:1045300003F0B0FC606000200E4908800E4908803E
:10454000074908800749088070BD000000812142AA
:104550007E0A00207C0A0020000080BF800A002024
:104560007A0A0020780A0020720A0020700A0020CF
:10457000740A00206E0A00206C0A002030B589B051
:1045800005460C4601210220FDF7ABFB012104206A
:10459000FDF79AFBC020ADF8200018208DF823000D
:1045A00003208DF8220008A97648FDF7D1F8ADF870
:1045B0001850ADF814400020ADF81A00ADF8160000
:1045C00005A97148FDF7BCFE7020ADF8040001207C
:1045D000ADF806000020ADF80C0001A96A48FDF70F
:1045E0002EFF01A96848FDF7E8FE08216648FEF79E
:1045F0003CFB08216448FEF72FFB01216248FEF7CF
:10460000FBF940F283316048FEF78EFC40F28331C3
:104610005D48FEF78BFC09B030BD08B501210420D0
:10462000FDF752FB0F20ADF8000010208DF80300BD
:1046300003208DF8020069465248FDF789F808BD4D
:1046400010B5FFF7EAFF002140F28330FFF796FF35
:1046500010BD2DE9F04105460C460021284603F027
:10466000E5FC20D800204949086001204849C1F8EC
:104670008401284603F016FA06460022454B02F054
:10468000FFFF04D200214048FEF74EFC2DE02846F3
:1046900003F080FB40F28331081A86B231463A4873
:1046A000FEF742FC21E0012038490860002038492B
:1046B000C1F8840185F00045284603F0F3F9064669
:1046C0000022344B02F0DCFF04D200212E48FEF71A
:1046D0002BFC0AE0284603F05DFB40F28331081A08
:1046E00086B231462848FEF71FFC0021204603F021
:1046F0009DFC21D80020254908310860012024496B
:10470000C1F88C01204603F0CDF906460022214B6A
:1047100002F0B6FF04D200211B48FEF707FC2EE092
:10472000204603F037FB40F28331081A86B2314647
:104730001548FEF7FBFB22E0012014490831086010
:1047400000201349C1F88C0184F00044204603F096
:10475000A9F9064600220F4B02F092FF04D2002175
:104760000948FEF7E3FB0AE0204603F013FB40F2A2
:104770008331081A86B231460348FEF7D7FBBDE8FD
:10478000F081000000080140000400408001214247
:104790000000214200188C40704700001CB50C46F8
:1047A000064B7B4469460090204600F0D0FA044650
:1047B0000020694600F0DEFA20461CBDCF0500004F
:1047C0000FB4044910B503AA029800F0EFFA10BC28
:1047D0005DF814FBF00900200FB41CB5084B06AAC5
:1047E0007B4469460090059800F0B1FA0446002029
:1047F000694600F0BFFA20461CBC5DF814FB0000BF
:104800009105000070B5044685690068C10601D5B0
:10481000302600E02026C00707D070BDD4E9012172
:1048200030469047206A401C20626D1EF6D570BD50
:1048300070B5044685690078C00707D170BDD4E91A
:10484000012120209047206A401C20626D1EF6D571
:1048500070BD70B50C460546012A05D02878800643
:1048600000D5EA69002302E0012305E05B1C9342C6
:1048700002D2E05C0028F9D1A869E618C01AA86144
:10488000286A184428622846FFF7BCFF04E0D5E9EF
:10489000012114F8010B9047B442F8D32846FFF7E2
:1048A000C7FF70BD2DE9F041064600241068752948
:1048B000314616A510D000F0C5F9002802DA4042B2
:1048C00013A507E031688A0701D512A502E0490760
:1048D00004D511A5012401E000F0BDF900210A2250
:1048E00006F1240709E0B0FBF2FCB0FBF2F302FB97
:1048F0001C00303078541846491C0028F3D1234658
:104900002A463046BDE8F04100F0AEB90000000094
:104910002D0000002B00000020000000F0B40D4628
:104920000188090502D5214C7C4402E01F4C7C44DF
:104930000E34002100F1240608E002F00F071209EE
:10494000E75D42EA03721B097754491C52EA0307E8
:10495000F3D102780023120704D5702D06D009B1D7
:10496000022311342246F0BC00F07EB9012310343A
:10497000F8E770B504460D462146106800F06BF963
:10498000024629462046BDE870400023C6E7D21DF6
:1049900022F00703D3E90023C0E70368126843F05D
:1049A000200303600823C3610023B7E772410000BE
:1049B0002DE9F05F894604464FF0000ADFF874B134
:1049C000FB44C0F820A02046E1688847002874D046
:1049D000252806D0D4E901219047206A401C206296
:1049E000F1E700265F462046E16888472028054613
:1049F00007DB312D05D2781910F8200C08B10643D9
:104A0000F1E7B00701D526F00406C4F81CA0002782
:104A1000C4F818A02A2D09D0284601F053FC38B359
:104A200004EB8708303DC8F8185019E059F8041B0A
:104A3000204604EB87029161E1688847012F054613
:104A400018D1E069002820DA26F020061DE0D8F809
:104A5000180000EB800005EB40003038C8F8180063
:104A60002046E1688847054601F02CFC0028EED17D
:104A7000012F0AD02E2D08D12046E16888477F1CDF
:104A80000546022F46F02006C4DBA069002803DAA1
:104A9000404246F00106A061F00701D026F0100662
:104AA0006C2D0BD0682D09D04C2D39D06A2D35D006
:104AB000742D35D07A2D33D016E038E0E1682F46DA
:104AC00020468847B842054609D16C2F26D04FF4BE
:104AD0008060E168064320468847054604E06C2F65
:104AE0001AD04FF4807006430DB3A5F14100192888
:104AF00002D8203546F400664A46294620462660FC
:104B00004E46FBF751FB80B101280BD0F61D26F075
:104B1000070000F1080956E74020E4E78020D8E7C5
:104B20000020D6E706F104094DE7284652E7206A3F
:104B3000BDE8F09F0241000030B505460B462A460D
:104B400013F8014B12F8010B08B1A042F8D01CB1C8
:104B5000002802D06D1CF1E7284630BD40EA010371
:104B6000024630B59B0710D14FF0013400E008C277
:104B700008C91D1B9D4315EAC41FF8D013F0FF019F
:104B800002F8011B0DD01B0AF8E711F8013B002BBE
:104B900002F8013B05D011F8013B002B02F8013B64
:104BA000F3D130BD10B5431C02E010F8011B71B108
:104BB0008107FAD14FF0013202C88C1A8C4314EAF3
:104BC000C211F9D0C01A0A0603D0C01E10BDC01A07
:104BD00010BD0A0401D0801E10BD0902FCD0401E89
:104BE00010BD4FF000020429C0F0128010F0030C39
:104BF00000F0C481CCF1040CBCF1020F18BF00F826
:104C0000012BA8BF20F8022BA1EB0C0100F0B6B9D4
:104C10005FEAC17C24BF00F8012B00F8012B48BFDC
:104C200000F8012B7047704770477047704710B508
:104C300000F0CAF9006810BD10B5044600F0C4F9D0
:104C4000046010BD09684A0501D540B27047C90526
:104C5000FCD500B2704709684A0501D5C0B270475B
:104C6000C905FCD580B270472DE9F0470D4699463D
:104C70009246044600F124080168880604D5E069DC
:104C800021F01001216000E00120A84201DD471B56
:104C900000E00027A1697A1902EB0900081AA06157
:104CA0002078C00602D42046FFF7ACFD002608E0BD
:104CB000D4E901211AF806009047206A401C761CAE
:104CC00020624E45F4DB2078C0060AD52046FFF767
:104CD00099FD06E0D4E9012130209047206A401C6C
:104CE0002062381EA7F10107F4DC07E0D4E90121B6
:104CF00018F805009047206A401C2062281EA5F184
:104D00000105F3DC2046FFF793FD2078000602D56D
:104D10000220BDE8F0870120FBE711680268006A05
:104D2000530501D508700AE0D30501D5088006E0D7
:104D3000130603D5C217C1E9000200E00860012094
:104D40007047000001694A1C02610878704700B58D
:104D50008FB0CDE901310021059105497944CDE9B4
:104D6000031011466846FFF723FE0FB000BD000098
:104D7000E5FFFFFF0A6802F8010B0A60704710B5F3
:104D8000436913B1AFF3008001E0FFF762FD01203A
:104D900010BD127800F124010A7000224A7001222D
:104DA000EDE711684FF0FF32E9E70000074B70B5FF
:104DB0000D467B44FFF7CBFF0446284600F0EEFC8F
:104DC00010B14FF0FF3070BD204670BD83C5FFFFAE
:104DD0002DE9FF5F15468A460446DFF8AC80F844AB
:104DE0000027D8E900103E46CDE9001010E03AF85F
:104DF00016106A4602A800F0D5FC411C07D02178A5
:104E0000890603D5E269391891420DD80744761C0A
:104E10002078800602D5E069B84205DDAE42E6DBC7
:104E20003AF816000028E2D1A069C01BA061204614
:104E3000FFF7E8FCD8E90010CDE90010002017E0EA
:104E40003AF818106A4602A800F0ACFCB0F1FF3F37
:104E500081460BD000250DF1080B05E0D4E90121B6
:104E60001BF8050090476D1C4D45F7D308F1010074
:104E7000B0428046E4DB206A384420622046FFF7D7
:104E8000D7FCBDE8FF9F0000163E00002DE9F04171
:104E90008046D21D22F007020025D2E90002F52942
:104EA00015A614D0011E72F1000106DA0023D0EB22
:104EB000030063EB020211A608E0D8F800108B078C
:104EC00001D50FA602E0490701D50EA6012511461E
:104ED000002408F1240704E000F07AF830323A5553
:104EE000641C50EA0102F7D12B4632462146404667
:104EF000BDE8F041FFF7B8BE000000002D00000043
:104F00002B0000002000000030B4002100F1240438
:104F100008E002F00705D208303542EA4372DB08A8
:104F20006554491C52EA0305F3D10468002310A21A
:104F3000250708D504F020040C4304D0C4690123DC
:104F40000CA2641EC46130BCFFF78EBE10B50446CF
:104F500021461068FFF77FFE02462046BDE810405C
:104F60000023D1E7D21D22F00701D1E90023CBE7CE
:104F700000000000300000004FF0000200B51346B2
:104F800094469646203922BFA0E80C50A0E80C5069
:104F9000B1F12001BFF4F7AF090728BFA0E80C501A
:104FA00048BF0CC05DF804EB890028BF40F8042B13
:104FB00008BF704748BF20F8022B11F0804F18BF80
:104FC00000F8012B704700000048704730120020A5
:104FD00030B5B0F10A024FEA900E71F100034EEACB
:104FE000817EB0EB0E0061EB91014FEA101E4EEA9C
:104FF000017E10EB0E0041EB11114FEA102E4EEA2C
:10500000016E10EB0E0041EB11214FEA104E4EEAFB
:10501000014E10EB0E0041EB1141401841F100012F
:105020004FEAD00040EA41704FEAD10110EB800511
:105030004FEA810444EA907444EB01046D1944EB97
:105040000404521BA3414FF0000348BF0A3200D5AD
:1050500030BD401C41F1000130BD70472DE9FF4FCC
:105060000C461E464FF0FF378BB0D2E90001DDF849
:1050700060800A908A46C1F30A5505B93D46002171
:1050800008464FF00000BAF1000F00F4400005DAC6
:1050900000EB80004FF4400101EA50004FEA9059C4
:1050A000B9F1010F00DDB9460A9850EA4A000ED066
:1050B00044F61050A5F2FF3545432F14B8F1000F08
:1050C0001ED07542291E1EDDC9F100021CE0B8F198
:1050D000010F4FF0000001D0302103E0F24305E062
:1050E0002154401CB042FBDB3046002200212154F9
:1050F0000B99C1F80880C1E900200FB0BDE8F08F1E
:10510000BD1B6D1CDEE74A4600DA694206A800F0C6
:10511000DFFB06AB93E8070003AB83E807005046CC
:105120000A9900F089FC8DE80700A0F500501F38AF
:1051300000900398002D09DD42F21F014A46084401
:1051400003A90390684600F0E8FE08E0A0F50050CF
:105150004A461F3803A90390684600F0F2FE8DE826
:1051600007000004000C03D04FF0FF30410800E0BE
:105170001046B8F1000F03D00022009215461EE041
:10518000751E05D4FFF724FF303262556D1EF9D528
:10519000B3460122084302D000227F1C04E020789D
:1051A000302801D100227F1E002A099786D01DE0F9
:1051B000112D07DAFFF70CFF303262556D1C50EAF3
:1051C0000102F5D1084302D00098C8B10EE00021D9
:1051D000681E05E0235C625C63542254401E491C37
:1051E0008142F7DBAB46A81B401E0990002004F863
:1051F0000B000B98099AC0F80880C0E9002B7CE7E7
:1052000011264FF0000859E72DE9F04F8846044673
:10521000D21D22F0070191B0D1E90001CDE90A01C8
:1052200000F0C5FF02460B98C00F01D02D2007E00B
:105230002068810701D52B2002E0202101EAC0006F
:10524000032A099001D0072A05DB03464146204680
:1052500000F0FEFA0BE12078800601D5E06900E05D
:105260000620B8F1650F814606D0B8F1660F18D058
:10527000B8F1670F70D131E00020B9F1110F009043
:1052800001DB112301E009F101030AAA01A90CA81D
:10529000FFF7E4FEDDE90C70002609F10105834605
:1052A00047E001204B4600904FF000470AAA01A9B1
:1052B0000CA8FFF7D3FEDDE90DB00C995D46002682
:1052C00010B909F101000D18B9EB050003D4C0F1C4
:1052D000FF3609F10105A5EB09002BE0B9F1010F3B
:1052E00001DA4FF001090020B9F1110F0090484692
:1052F00001DD112300E003460AAA01A90CA8FFF76B
:10530000ADFEDDE90C704D4600268346207800078F
:105310000AD4AB4500DA5D4601A8012D04DD411930
:1053200011F8011C302907D04F4502DA17F1040F9C
:1053300004DA012082460FE06D1EEEE7002F02DC4A
:10534000ED1B3E4403E0781CA84200DD7D1CB81B29
:1053500000F1010A4FF000472078000703D4AA4566
:1053600001DB4FF0FF3A0021B7F1004F0DF1430888
:105370008DF8431024D002202B23002F01DA7F4226
:105380002D230A21021EA0F1010000DC5FB197FB72
:10539000F1FC97FBF1F201FB1C7C17460CF1300C81
:1053A00008F801CDEEE7A8F1010003702188090596
:1053B00001D5452100E06521A0F1010800F8011C9C
:1053C00009980FA9A1EB0807FF1D00B101204119A1
:1053D00001EBEA70A1693844081A401EA0612078E8
:1053E000C00602D42046FFF70DFA099828B1D4E987
:1053F00001219047206A401C20622078C00622D5F7
:105400002046FFF7FFF91EE0002E04DBB34502DD66
:1054100001A8805D00E03020D4E901219047206A96
:10542000401C2062761CAAF101005FEA000A0AD142
:1054300000F00AFAC0680168405CD4E90121904795
:10544000206A401C2062281EA5F10105DCDC07E073
:10545000D4E9012118F8010B9047206A401C206212
:10546000381EA7F10107F3DC2046FFF7E1F903201E
:1054700011B043E62DE9F04F04460D46D21D22F04F
:10548000070089B0D0E9009248461746394600F037
:105490008EFE0246F80F01D02D2307E02068810719
:1054A00001D52B2302E0202101EAC0038DF8203032
:1054B0000BB1012000E00020032A824601D0072A18
:1054C00004DB2946204600F0C3F93DE12078800640
:1054D00001D40D2500E0E569C7F30A560D2D49DA20
:1054E00000214FEA175B08464FF00000002F00F440
:1054F000400007DA00EB80004FF4400100EBD07071
:1055000001EA60008115012901DD4FF0FF31002221
:105510004FEA850CBCF1180F06D31346ACF1180006
:105520004FF08052C24003E04FF4801323FA0CF393
:105530000CF10C0CBCF1200F04D3ACF1200C09FAD7
:105540000CF001E007FA0CF000294FF0004801DDF3
:1055500018B90FE00ED140450CD319EB02095F4199
:1055600021B9404502D19F4329EA0209BBEB175FED
:1055700000D0761C2088000502D57B48784402E0E4
:1055800079487844193808AA302302F80A30037C95
:105590000AF10101002E0AF1020A53546A4602DCA4
:1055A0004FF0300101E04FF031014FF001088DF86C
:1055B000001002D0A6F2FF3603E059EA470100D0FE
:1055C0006A4E002D02DC2178090704D54FF002084D
:1055D0002E218DF80110C44600210BE0C7F30343D0
:1055E0003F01C35C491C6D1E02F80830052908F113
:1055F000010801DA002DF1DC00210CE000EB197349
:10560000491C1B786D1E082902F808304FEA091959
:1056100008F1010801DA002DF0DC2178890602D5B5
:1056200014E0A8F10108E04505DD02EB080111F8DE
:10563000011C3029F5D0B8F1000F07DD02EB08019D
:1056400011F8011C2E2901D1A8F10108002D05DD5A
:105650003E2102F808106D1E08F10108407C002E62
:1056600002F8080008F1010804DA2D20764202F859
:10567000080002E02B2002F808000A214FF47A709B
:10568000864208F101080BDB96FBF0F3303302F899
:10569000083096FBF0F308F1010800FB136601E007
:1056A000642E0CDB642096FBF0F3303302F80830F4
:1056B00096FBF0F308F1010800FB136601E00A2EE7
:1056C00006DB96FBF1F0303002F8080008F1010823
:1056D00096FBF1F001FB1060303002F80800A16980
:1056E00008F1010808EB050202EB0A00081AA061A4
:1056F0002078C00602D42046FFF784F8216A08AE5D
:1057000001EB0A00206204E0D4E9012116F8010B44
:105710009047BAF1010AF7D22078C00602D5204698
:10572000FFF770F86E4609E016F8010B3E280FD01F
:10573000D4E901219047206A401C2062B8F1010899
:10574000F2D22046FFF774F809B00320BDE8F08FCD
:10575000206A2844206203E0D4E9012130209047E8
:105760006D1EEBD3F8E700009B36000002FCFFFF44
:1057700010B5436913B1AFF3008001E0FFF728FBD8
:10578000012010BD128800F1240182840022C2840D
:105790000122EDE711684FF0FF32E9E7007B00F0EE
:1057A0008000704770B516460C46054600F044F878
:1057B000036893F80101012806D0FF2C0FD8185D6B
:1057C00068B101202C7070BDD3F807013246214624
:1057D00003F2071303442846BDE8704018474FF012
:1057E000FF3070BD00487047301200207546FFF74B
:1057F000F9FFAE4605006946534620F0070085468E
:1058000018B020B5FBF7C4FEBDE820404FF00006FD
:105810004FF000074FF000084FF0000B21F0070198
:10582000AC46ACE8C009ACE8C009ACE8C009ACE8DB
:10583000C0098D467047000010B500F005F8001D46
:1058400010BD00BFE1160000004870475012002054
:105850002DE9F0411F46044603260168072A01F49A
:10586000006004DB08B116A505E016A503E008B149
:1058700015A500E015A521F010002060A069C01E4C
:10588000A0610FB1401EA0612046FEF7BBFF4FB1E3
:10589000D4E9012138469047206A401C2062C01C90
:1058A000206206E0206AFAE7D4E9012115F8010B2D
:1058B0009047761EF8D22046FEF7BAFFBDE8F08189
:1058C0004E414E006E616E00494E4600696E6600A4
:1058D0002DE9F047814616468AB0334878440DC812
:1058E0008DE80D0030487844801C03AC0DC884E876
:1058F0000D0041F69B300844372190FBF1F290FBFC
:10590000F1F5A5F1800501FB12041B3C02D56442B0
:10591000012000E00020DFF890A080460027FA4434
:10592000AAF1BE0A0DE0E00709D03246684607EB4F
:1059300047010AEB810100F004FB8DE807006410C9
:105940007F1C002CEFD1184F7F44AC3F18E0E807D4
:1059500014D007EB04100DF1180A90E80E008AE845
:105960000E00C068F04201D198190890324606A98D
:1059700003A800F0E6FA03AB83E807006D10641C8F
:10598000002DE4D132466946B8F1000F03A802D0D9
:1059900000F0C3FA01E000F0D4FAC9E90001C9F847
:1059A00008200AB0BDE8F087CC3300000446AFF30E
:1059B00000802046FAF75BFC4FF0013C50F8042BC6
:1059C00051F8043B9A4221D1A2EB0C03934313EA12
:1059D000CC1317D150F8042B51F8043B9A4215D13F
:1059E000A2EB0C03934313EACC130BD150F8042B16
:1059F00051F8043B9A4209D1A2EB0C03934313EAFA
:105A0000CC13DBD04FF00000704700BFD01A01BAB2
:105A1000B1FA81F101F0180122FA01F0CB40C1F195
:105A20002001DBB2C0B2C01A2CFA01F3D11A9143A3
:105A300011EAC311E6D170475FEA400C08BF91F04C
:105A4000000F4FEA8C234FEAC12243EA51514FEA3B
:105A50001C5018BF00F5F0404FEA300018BF41F06D
:105A600000415FEA6C5C00F02980BCF1FF3F08BF99
:105A700040F080407047130C06BF12044FF0100C2A
:105A80004FF0000C130E04BF12020CF1080C130FA0
:105A900004BF12010CF1040C930F04BF92000CF12F
:105AA000020CD30F04BF52000CF1010C11464FF051
:105AB0000002A0F11F00A0EB0C00704711F0004F96
:105AC00008BF704731F000413FF4D5AF0B0C06BF63
:105AD00009044FF0100C4FF0000C0B0E04BF09022C
